{
  "address": "0x82A1c924FBbC6c09b5431d99931b423AD1A43384",
  "abi": [
    {
      "inputs": [
        {
          "internalType": "address",
          "name": "_daoTokenAddress",
          "type": "address"
        },
        {
          "internalType": "address",
          "name": "_wormholeRelayerAddress",
          "type": "address"
        }
      ],
      "stateMutability": "nonpayable",
      "type": "constructor"
    },
    {
      "inputs": [
        {
          "internalType": "address",
          "name": "owner",
          "type": "address"
        }
      ],
      "name": "OwnableInvalidOwner",
      "type": "error"
    },
    {
      "inputs": [
        {
          "internalType": "address",
          "name": "account",
          "type": "address"
        }
      ],
      "name": "OwnableUnauthorizedAccount",
      "type": "error"
    },
    {
      "anonymous": false,
      "inputs": [
        {
          "indexed": true,
          "internalType": "address",
          "name": "previousOwner",
          "type": "address"
        },
        {
          "indexed": true,
          "internalType": "address",
          "name": "newOwner",
          "type": "address"
        }
      ],
      "name": "OwnershipTransferred",
      "type": "event"
    },
    {
      "anonymous": false,
      "inputs": [
        {
          "indexed": true,
          "internalType": "uint256",
          "name": "id",
          "type": "uint256"
        },
        {
          "indexed": false,
          "internalType": "string",
          "name": "description",
          "type": "string"
        }
      ],
      "name": "ProposalCreated",
      "type": "event"
    },
    {
      "anonymous": false,
      "inputs": [
        {
          "indexed": true,
          "internalType": "uint256",
          "name": "id",
          "type": "uint256"
        }
      ],
      "name": "ProposalExecuted",
      "type": "event"
    },
    {
      "anonymous": false,
      "inputs": [
        {
          "indexed": true,
          "internalType": "address",
          "name": "newReceiver",
          "type": "address"
        }
      ],
      "name": "ReceiverSet",
      "type": "event"
    },
    {
      "anonymous": false,
      "inputs": [
        {
          "indexed": true,
          "internalType": "uint256",
          "name": "id",
          "type": "uint256"
        },
        {
          "indexed": true,
          "internalType": "address",
          "name": "voter",
          "type": "address"
        },
        {
          "indexed": false,
          "internalType": "uint256",
          "name": "power",
          "type": "uint256"
        },
        {
          "indexed": false,
          "internalType": "bool",
          "name": "support",
          "type": "bool"
        }
      ],
      "name": "VoteCast",
      "type": "event"
    },
    {
      "anonymous": false,
      "inputs": [
        {
          "indexed": false,
          "internalType": "uint256",
          "name": "newPeriod",
          "type": "uint256"
        }
      ],
      "name": "VotingPeriodUpdated",
      "type": "event"
    },
    {
      "inputs": [],
      "name": "MIN_VOTING_PERIOD_BLOCKS",
      "outputs": [
        {
          "internalType": "uint256",
          "name": "",
          "type": "uint256"
        }
      ],
      "stateMutability": "view",
      "type": "function"
    },
    {
      "inputs": [
        {
          "internalType": "address",
          "name": "_target",
          "type": "address"
        },
        {
          "internalType": "uint256",
          "name": "_value",
          "type": "uint256"
        },
        {
          "internalType": "bytes",
          "name": "_calldata",
          "type": "bytes"
        },
        {
          "internalType": "string",
          "name": "_description",
          "type": "string"
        }
      ],
      "name": "createProposal",
      "outputs": [],
      "stateMutability": "nonpayable",
      "type": "function"
    },
    {
      "inputs": [],
      "name": "daoToken",
      "outputs": [
        {
          "internalType": "contract IVotes",
          "name": "",
          "type": "address"
        }
      ],
      "stateMutability": "view",
      "type": "function"
    },
    {
      "inputs": [
        {
          "internalType": "uint256",
          "name": "_proposalId",
          "type": "uint256"
        }
      ],
      "name": "finalizeAndSend",
      "outputs": [],
      "stateMutability": "payable",
      "type": "function"
    },
    {
      "inputs": [
        {
          "internalType": "uint256",
          "name": "",
          "type": "uint256"
        },
        {
          "internalType": "address",
          "name": "",
          "type": "address"
        }
      ],
      "name": "hasVoted",
      "outputs": [
        {
          "internalType": "bool",
          "name": "",
          "type": "bool"
        }
      ],
      "stateMutability": "view",
      "type": "function"
    },
    {
      "inputs": [],
      "name": "nextProposalId",
      "outputs": [
        {
          "internalType": "uint256",
          "name": "",
          "type": "uint256"
        }
      ],
      "stateMutability": "view",
      "type": "function"
    },
    {
      "inputs": [],
      "name": "owner",
      "outputs": [
        {
          "internalType": "address",
          "name": "",
          "type": "address"
        }
      ],
      "stateMutability": "view",
      "type": "function"
    },
    {
      "inputs": [
        {
          "internalType": "uint256",
          "name": "",
          "type": "uint256"
        }
      ],
      "name": "proposals",
      "outputs": [
        {
          "internalType": "uint256",
          "name": "id",
          "type": "uint256"
        },
        {
          "internalType": "string",
          "name": "description",
          "type": "string"
        },
        {
          "internalType": "uint256",
          "name": "snapshotBlock",
          "type": "uint256"
        },
        {
          "internalType": "uint256",
          "name": "votingPeriodEndBlock",
          "type": "uint256"
        },
        {
          "internalType": "uint256",
          "name": "forVotes",
          "type": "uint256"
        },
        {
          "internalType": "uint256",
          "name": "againstVotes",
          "type": "uint256"
        },
        {
          "internalType": "address",
          "name": "target",
          "type": "address"
        },
        {
          "internalType": "uint256",
          "name": "value",
          "type": "uint256"
        },
        {
          "internalType": "bytes",
          "name": "calldataPayload",
          "type": "bytes"
        },
        {
          "internalType": "bool",
          "name": "executed",
          "type": "bool"
        },
        {
          "internalType": "bool",
          "name": "exists",
          "type": "bool"
        }
      ],
      "stateMutability": "view",
      "type": "function"
    },
    {
      "inputs": [],
      "name": "receiverAddress",
      "outputs": [
        {
          "internalType": "address",
          "name": "",
          "type": "address"
        }
      ],
      "stateMutability": "view",
      "type": "function"
    },
    {
      "inputs": [],
      "name": "renounceOwnership",
      "outputs": [],
      "stateMutability": "nonpayable",
      "type": "function"
    },
    {
      "inputs": [
        {
          "internalType": "address",
          "name": "_receiver",
          "type": "address"
        }
      ],
      "name": "setReceiver",
      "outputs": [],
      "stateMutability": "nonpayable",
      "type": "function"
    },
    {
      "inputs": [
        {
          "internalType": "uint256",
          "name": "_blocks",
          "type": "uint256"
        }
      ],
      "name": "setVotingPeriod",
      "outputs": [],
      "stateMutability": "nonpayable",
      "type": "function"
    },
    {
      "inputs": [
        {
          "internalType": "address",
          "name": "newOwner",
          "type": "address"
        }
      ],
      "name": "transferOwnership",
      "outputs": [],
      "stateMutability": "nonpayable",
      "type": "function"
    },
    {
      "inputs": [
        {
          "internalType": "uint256",
          "name": "_proposalId",
          "type": "uint256"
        },
        {
          "internalType": "bool",
          "name": "_support",
          "type": "bool"
        }
      ],
      "name": "vote",
      "outputs": [],
      "stateMutability": "nonpayable",
      "type": "function"
    },
    {
      "inputs": [],
      "name": "votingPeriodBlocks",
      "outputs": [
        {
          "internalType": "uint256",
          "name": "",
          "type": "uint256"
        }
      ],
      "stateMutability": "view",
      "type": "function"
    },
    {
      "inputs": [],
      "name": "wormholeRelayer",
      "outputs": [
        {
          "internalType": "contract IWormholeRelayer",
          "name": "",
          "type": "address"
        }
      ],
      "stateMutability": "view",
      "type": "function"
    }
  ],
  "transactionHash": "0x0eb5100b236ba51edee91a5de577443b8185ded20f58b77fca69ad25982d8ade",
  "args": [
    "0xBDC24822acE5AC820789bE8866F67dc1361aD76A",
    "0x93BAD53DDfB6132b0aC8E37f6029163E63372cEE"
  ],
  "numDeployments": 1,
  "solcInputHash": "45030d9a1474c1c7bbcad7e0f364a6de",
  "bytecode": "0x60c06040526001600455600f6005553480156200001b57600080fd5b5060405162001573380380620015738339810160408190526200003e91620000f6565b33806200006557604051631e4fbdf760e01b81526000600482015260240160405180910390fd5b620000708162000089565b506001600160a01b039182166080521660a0526200012e565b600080546001600160a01b038381166001600160a01b0319831681178455604051919092169283917f8be0079c531659141344cd1fd0a4f28419497f9722a3daafe3b4186f6b6457e09190a35050565b80516001600160a01b0381168114620000f157600080fd5b919050565b600080604083850312156200010a57600080fd5b6200011583620000d9565b91506200012560208401620000d9565b90509250929050565b60805160a05161140a62000169600039600081816102e30152818161077601526108660152600081816101f10152610b87015261140a6000f3fe6080604052600436106100f35760003560e01c8063a680c13c1161008a578063da25b72511610059578063da25b725146102d1578063db725e1714610305578063ea0217cf1461031a578063f2fde38b1461033a57600080fd5b8063a680c13c14610268578063b24b7ffd1461027b578063c1f5617c14610291578063c9d27afe146102b157600080fd5b80634914b030116100c65780634914b030146101df578063715018a614610213578063718da7ee1461022a5780638da5cb5b1461024a57600080fd5b8063013cf08b146100f857806316fed3e2146101385780632ab09d14146101705780634385963214610194575b600080fd5b34801561010457600080fd5b50610118610113366004610e51565b61035a565b60405161012f9b9a99989796959493929190610eb0565b60405180910390f35b34801561014457600080fd5b50600154610158906001600160a01b031681565b6040516001600160a01b03909116815260200161012f565b34801561017c57600080fd5b5061018660045481565b60405190815260200161012f565b3480156101a057600080fd5b506101cf6101af366004610f49565b600360209081526000928352604080842090915290825290205460ff1681565b604051901515815260200161012f565b3480156101eb57600080fd5b506101587f000000000000000000000000000000000000000000000000000000000000000081565b34801561021f57600080fd5b506102286104d6565b005b34801561023657600080fd5b50610228610245366004610f75565b6104ea565b34801561025657600080fd5b506000546001600160a01b0316610158565b610228610276366004610e51565b61053c565b34801561028757600080fd5b5061018660055481565b34801561029d57600080fd5b506102286102ac366004610fe0565b610966565b3480156102bd57600080fd5b506102286102cc36600461106a565b610a46565b3480156102dd57600080fd5b506101587f000000000000000000000000000000000000000000000000000000000000000081565b34801561031157600080fd5b50610186600f81565b34801561032657600080fd5b50610228610335366004610e51565b610cf6565b34801561034657600080fd5b50610228610355366004610f75565b610d96565b6002602052600090815260409020805460018201805491929161037c9061109f565b80601f01602080910402602001604051908101604052809291908181526020018280546103a89061109f565b80156103f55780601f106103ca576101008083540402835291602001916103f5565b820191906000526020600020905b8154815290600101906020018083116103d857829003601f168201915b5050505050908060020154908060030154908060040154908060050154908060060160009054906101000a90046001600160a01b0316908060070154908060080180546104419061109f565b80601f016020809104026020016040519081016040528092919081815260200182805461046d9061109f565b80156104ba5780601f1061048f576101008083540402835291602001916104ba565b820191906000526020600020905b81548152906001019060200180831161049d57829003601f168201915b5050506009909301549192505060ff808216916101009004168b565b6104de610dd4565b6104e86000610e01565b565b6104f2610dd4565b600180546001600160a01b0319166001600160a01b0383169081179091556040517fb68fd1a788a85f8f18de7976d851969ff9ff2216de81169c17a6f4ac94c23def90600090a250565b60008181526002602052604090206009810154610100900460ff166105a85760405162461bcd60e51b815260206004820152601e60248201527f566f7465723a2050726f706f73616c20646f6573206e6f74206578697374000060448201526064015b60405180910390fd5b806003015443116105fb5760405162461bcd60e51b815260206004820152601b60248201527f566f7465723a20566f74696e67206973207374696c6c206f70656e0000000000604482015260640161059f565b600981015460ff16156106505760405162461bcd60e51b815260206004820181905260248201527f566f7465723a2050726f706f73616c20616c7265616479206578656375746564604482015260640161059f565b80600501548160040154116106a75760405162461bcd60e51b815260206004820152601e60248201527f566f7465723a2050726f706f73616c206661696c656420746f20706173730000604482015260640161059f565b6001546001600160a01b03166106ff5760405162461bcd60e51b815260206004820152601760248201527f566f7465723a205265636569766572206e6f7420736574000000000000000000604482015260640161059f565b60098101805460ff191660011790556006810154600782015460405160009261073b926001600160a01b039091169160088601906020016110d9565b60408051808303601f190181529082905263c23ee3c360e01b82526127126004830152600060248301819052620493e06044840152909250907f00000000000000000000000000000000000000000000000000000000000000006001600160a01b03169063c23ee3c3906064016040805180830381865afa1580156107c4573d6000803e3d6000fd5b505050506040513d601f19601f820116820180604052508101906107e8919061117b565b5090508034101561084c5760405162461bcd60e51b815260206004820152602860248201527f566f7465723a20496e73756666696369656e74204554482073656e7420666f72604482015267206761732066656560c01b606482015260840161059f565b6001546040516347f66e8160e11b81526001600160a01b037f0000000000000000000000000000000000000000000000000000000000000000811692638fecdd029285926108ad92612712929116908890600090620493e09060040161119f565b60206040518083038185885af11580156108cb573d6000803e3d6000fd5b50505050506040513d601f19601f820116820180604052508101906108f091906111e1565b5060006108fd8234611221565b9050801561093457604051339082156108fc029083906000818181858888f19350505050158015610932573d6000803e3d6000fd5b505b60405185907f712ae1383f79ac853f8d882153778e0260ef8f03b504e2866e0593e04d2b291f90600090a25050505050565b600454600081815260026020526040902090815543906001810161098b84868361129f565b50600281018290556005546109a09083611360565b60038201556006810180546001600160a01b0319166001600160a01b038a1617905560078101879055600881016109d886888361129f565b5060098101805461ff0019166101001790556004546040517f9c770c289ab5bf7e57cb1d23c8ceae993aea46eb64847072fd3d78ca60d3e43290610a1f9087908790611373565b60405180910390a260048054906000610a37836113a2565b91905055505050505050505050565b60008281526002602052604090206009810154610100900460ff16610aad5760405162461bcd60e51b815260206004820152601e60248201527f566f7465723a2050726f706f73616c20646f6573206e6f742065786973740000604482015260640161059f565b8060030154431115610b015760405162461bcd60e51b815260206004820152601a60248201527f566f7465723a20566f74696e6720706572696f6420656e646564000000000000604482015260640161059f565b600083815260036020908152604080832033845290915290205460ff1615610b625760405162461bcd60e51b8152602060048201526014602482015273159bdd195c8e88105b1c9958591e481d9bdd195960621b604482015260640161059f565b6002810154604051630748d63560e31b815233600482015260248101919091526000907f00000000000000000000000000000000000000000000000000000000000000006001600160a01b031690633a46b1a890604401602060405180830381865afa158015610bd6573d6000803e3d6000fd5b505050506040513d601f19601f82011682018060405250810190610bfa91906113bb565b905060008111610c455760405162461bcd60e51b81526020600482015260166024820152752b37ba32b91d102737903b37ba34b733903837bbb2b960511b604482015260640161059f565b8215610c6a5780826004016000828254610c5f9190611360565b90915550610c849050565b80826005016000828254610c7e9190611360565b90915550505b600084815260036020908152604080832033808552925291829020805460ff19166001179055905185907fb898e75d5aac8de2f407e4a683c8d909e832d1e371e3bff0fa3ed934e88d956290610ce890859088909182521515602082015260400190565b60405180910390a350505050565b610cfe610dd4565b600f811015610d5b5760405162461bcd60e51b815260206004820152602360248201527f506572696f6420697320746f6f2073686f727420287365637572697479207269604482015262736b2960e81b606482015260840161059f565b60058190556040518181527f651c77f42613a075437aa794c44471e3abc3a661956a67aaee165bb7396974aa9060200160405180910390a150565b610d9e610dd4565b6001600160a01b038116610dc857604051631e4fbdf760e01b81526000600482015260240161059f565b610dd181610e01565b50565b6000546001600160a01b031633146104e85760405163118cdaa760e01b815233600482015260240161059f565b600080546001600160a01b038381166001600160a01b0319831681178455604051919092169283917f8be0079c531659141344cd1fd0a4f28419497f9722a3daafe3b4186f6b6457e09190a35050565b600060208284031215610e6357600080fd5b5035919050565b6000815180845260005b81811015610e9057602081850181015186830182015201610e74565b506000602082860101526020601f19601f83011685010191505092915050565b60006101608d8352806020840152610eca8184018e610e6a565b90508b60408401528a60608401528960808401528860a084015260018060a01b03881660c08401528660e0840152828103610100840152610f0b8187610e6a565b9415156101208401525050901515610140909101529998505050505050505050565b80356001600160a01b0381168114610f4457600080fd5b919050565b60008060408385031215610f5c57600080fd5b82359150610f6c60208401610f2d565b90509250929050565b600060208284031215610f8757600080fd5b610f9082610f2d565b9392505050565b60008083601f840112610fa957600080fd5b50813567ffffffffffffffff811115610fc157600080fd5b602083019150836020828501011115610fd957600080fd5b9250929050565b60008060008060008060808789031215610ff957600080fd5b61100287610f2d565b955060208701359450604087013567ffffffffffffffff8082111561102657600080fd5b6110328a838b01610f97565b9096509450606089013591508082111561104b57600080fd5b5061105889828a01610f97565b979a9699509497509295939492505050565b6000806040838503121561107d57600080fd5b823591506020830135801515811461109457600080fd5b809150509250929050565b600181811c908216806110b357607f821691505b6020821081036110d357634e487b7160e01b600052602260045260246000fd5b50919050565b60018060a01b038416815260006020848184015260606040840152600084546111018161109f565b8060608701526080600180841660008114611123576001811461113d5761116b565b60ff1985168984015283151560051b89018301955061116b565b896000528660002060005b858110156111635781548b8201860152908301908801611148565b8a0184019650505b50939a9950505050505050505050565b6000806040838503121561118e57600080fd5b505080516020909101519092909150565b61ffff861681526001600160a01b038516602082015260a0604082018190526000906111cd90830186610e6a565b606083019490945250608001529392505050565b6000602082840312156111f357600080fd5b815167ffffffffffffffff81168114610f9057600080fd5b634e487b7160e01b600052601160045260246000fd5b818103818111156112345761123461120b565b92915050565b634e487b7160e01b600052604160045260246000fd5b601f82111561129a57600081815260208120601f850160051c810160208610156112775750805b601f850160051c820191505b8181101561129657828155600101611283565b5050505b505050565b67ffffffffffffffff8311156112b7576112b761123a565b6112cb836112c5835461109f565b83611250565b6000601f8411600181146112ff57600085156112e75750838201355b600019600387901b1c1916600186901b178355611359565b600083815260209020601f19861690835b828110156113305786850135825560209485019460019092019101611310565b508682101561134d5760001960f88860031b161c19848701351681555b505060018560011b0183555b5050505050565b808201808211156112345761123461120b565b60208152816020820152818360408301376000818301604090810191909152601f909201601f19160101919050565b6000600182016113b4576113b461120b565b5060010190565b6000602082840312156113cd57600080fd5b505191905056fea26469706673582212208bef99d89a2f454a1f546cb35cdf9c1d1895698ca888647d1bb1de2be52ac72664736f6c63430008140033",
  "devdoc": {
    "errors": {
      "OwnableInvalidOwner(address)": [
        {
          "details": "The owner is not a valid owner account. (eg. `address(0)`)"
        }
      ],
      "OwnableUnauthorizedAccount(address)": [
        {
          "details": "The caller account is not authorized to perform an operation."
        }
      ]
    },
    "kind": "dev",
    "methods": {
      "constructor": {
        "params": {
          "_daoTokenAddress": "The address of your DAOToken on Base Sepolia",
          "_wormholeRelayerAddress": "The official Wormhole Relayer on Base Sepolia"
        }
      },
      "owner()": {
        "details": "Returns the address of the current owner."
      },
      "renounceOwnership()": {
        "details": "Leaves the contract without owner. It will not be possible to call `onlyOwner` functions. Can only be called by the current owner. NOTE: Renouncing ownership will leave the contract without an owner, thereby disabling any functionality that is only available to the owner."
      },
      "transferOwnership(address)": {
        "details": "Transfers ownership of the contract to a new account (`newOwner`). Can only be called by the current owner."
      }
    },
    "title": "Voter",
    "version": 1
  },
  "userdoc": {
    "kind": "user",
    "methods": {},
    "notice": "Manages proposals on Base Sepolia and sends results to Sepolia via Wormhole.",
    "version": 1
  },
  "storageLayout": {
    "storage": [
      {
        "astId": 8,
        "contract": "contracts/Voter.sol:Voter",
        "label": "_owner",
        "offset": 0,
        "slot": "0",
        "type": "t_address"
      },
      {
        "astId": 313,
        "contract": "contracts/Voter.sol:Voter",
        "label": "receiverAddress",
        "offset": 0,
        "slot": "1",
        "type": "t_address"
      },
      {
        "astId": 341,
        "contract": "contracts/Voter.sol:Voter",
        "label": "proposals",
        "offset": 0,
        "slot": "2",
        "type": "t_mapping(t_uint256,t_struct(Proposal)336_storage)"
      },
      {
        "astId": 347,
        "contract": "contracts/Voter.sol:Voter",
        "label": "hasVoted",
        "offset": 0,
        "slot": "3",
        "type": "t_mapping(t_uint256,t_mapping(t_address,t_bool))"
      },
      {
        "astId": 350,
        "contract": "contracts/Voter.sol:Voter",
        "label": "nextProposalId",
        "offset": 0,
        "slot": "4",
        "type": "t_uint256"
      },
      {
        "astId": 353,
        "contract": "contracts/Voter.sol:Voter",
        "label": "votingPeriodBlocks",
        "offset": 0,
        "slot": "5",
        "type": "t_uint256"
      }
    ],
    "types": {
      "t_address": {
        "encoding": "inplace",
        "label": "address",
        "numberOfBytes": "20"
      },
      "t_bool": {
        "encoding": "inplace",
        "label": "bool",
        "numberOfBytes": "1"
      },
      "t_bytes_storage": {
        "encoding": "bytes",
        "label": "bytes",
        "numberOfBytes": "32"
      },
      "t_mapping(t_address,t_bool)": {
        "encoding": "mapping",
        "key": "t_address",
        "label": "mapping(address => bool)",
        "numberOfBytes": "32",
        "value": "t_bool"
      },
      "t_mapping(t_uint256,t_mapping(t_address,t_bool))": {
        "encoding": "mapping",
        "key": "t_uint256",
        "label": "mapping(uint256 => mapping(address => bool))",
        "numberOfBytes": "32",
        "value": "t_mapping(t_address,t_bool)"
      },
      "t_mapping(t_uint256,t_struct(Proposal)336_storage)": {
        "encoding": "mapping",
        "key": "t_uint256",
        "label": "mapping(uint256 => struct Voter.Proposal)",
        "numberOfBytes": "32",
        "value": "t_struct(Proposal)336_storage"
      },
      "t_string_storage": {
        "encoding": "bytes",
        "label": "string",
        "numberOfBytes": "32"
      },
      "t_struct(Proposal)336_storage": {
        "encoding": "inplace",
        "label": "struct Voter.Proposal",
        "members": [
          {
            "astId": 315,
            "contract": "contracts/Voter.sol:Voter",
            "label": "id",
            "offset": 0,
            "slot": "0",
            "type": "t_uint256"
          },
          {
            "astId": 317,
            "contract": "contracts/Voter.sol:Voter",
            "label": "description",
            "offset": 0,
            "slot": "1",
            "type": "t_string_storage"
          },
          {
            "astId": 319,
            "contract": "contracts/Voter.sol:Voter",
            "label": "snapshotBlock",
            "offset": 0,
            "slot": "2",
            "type": "t_uint256"
          },
          {
            "astId": 321,
            "contract": "contracts/Voter.sol:Voter",
            "label": "votingPeriodEndBlock",
            "offset": 0,
            "slot": "3",
            "type": "t_uint256"
          },
          {
            "astId": 323,
            "contract": "contracts/Voter.sol:Voter",
            "label": "forVotes",
            "offset": 0,
            "slot": "4",
            "type": "t_uint256"
          },
          {
            "astId": 325,
            "contract": "contracts/Voter.sol:Voter",
            "label": "againstVotes",
            "offset": 0,
            "slot": "5",
            "type": "t_uint256"
          },
          {
            "astId": 327,
            "contract": "contracts/Voter.sol:Voter",
            "label": "target",
            "offset": 0,
            "slot": "6",
            "type": "t_address"
          },
          {
            "astId": 329,
            "contract": "contracts/Voter.sol:Voter",
            "label": "value",
            "offset": 0,
            "slot": "7",
            "type": "t_uint256"
          },
          {
            "astId": 331,
            "contract": "contracts/Voter.sol:Voter",
            "label": "calldataPayload",
            "offset": 0,
            "slot": "8",
            "type": "t_bytes_storage"
          },
          {
            "astId": 333,
            "contract": "contracts/Voter.sol:Voter",
            "label": "executed",
            "offset": 0,
            "slot": "9",
            "type": "t_bool"
          },
          {
            "astId": 335,
            "contract": "contracts/Voter.sol:Voter",
            "label": "exists",
            "offset": 1,
            "slot": "9",
            "type": "t_bool"
          }
        ],
        "numberOfBytes": "320"
      },
      "t_uint256": {
        "encoding": "inplace",
        "label": "uint256",
        "numberOfBytes": "32"
      }
    }
  }
}